:100000000C9446000C9465000C9465000C946500FB
:100010000C9465000C9465000C9465000C946500CC
:100020000C9465000C9465000C9465000C946500BC
:100030000C9465000C942B010C9465000C946500E5
:100040000C9465000C9465000C9465000C9465009C
:100050000C9465000C9465000C9465000C9465008C
:100060000C9465000C9465000C9465000C9465007C
:100070000C9465000C9465000C9465000C9465006C
:100080000C9465000C9465000C94650011241FBE4F
:10009000CFEFD0E4DEBFCDBF11E0A0E0B1E0E0E003
:1000A000F9E000E00BBF02C007900D92A231B1074A
:1000B000D9F721E0A2E1B1E001C01D92A733B20758
:1000C000E1F70E94E5020C947E040C940000CF93AB
:1000D000DF9300D01F92CDB7DEB789837B836A831D
:1000E00089818A3031F48A819B81BC018DE00E9434
:1000F000670080EC90E0FC018081882F90E08072A6
:100100009927892BB1F386EC90E02981FC012083AB
:1001100080E090E00F900F900F90DF91CF910895C5
:10012000CF93DF93CDB7DEB72C970FB6F894DEBF31
:100130000FBECDBF6D837E838F83988729873A87D3
:100140004B875C878D819E81AF81B88529853A85F3
:100150004B855C85BC01CD010E945C04DC01CB01B8
:1001600089839A83AB83BC8389819A81AB81BC816B
:10017000892B8A2B8B2B29F489859A85AB85BC85A5
:1001800011C089859A85AB85BC858D839E83AF839D
:10019000B88789819A81AB81BC8189879A87AB872F
:1001A000BC87D0CFBC01CD012C960FB6F894DEBF32
:1001B0000FBECDBFDF91CF910895CF93DF93CDB721
:1001C000DEB781E890E02BE0FC01208388E890E036
:1001D0002DE730E0FC01318320838FE690E022E0C0
:1001E000FC01208384E890E0FC0111821082809160
:1001F0000E0190910F01A0911001B0911101809317
:10020000130190931401A0931501B09316018FE58B
:1002100090E02FE530E0F90120812068FC01208387
:100220000000DF91CF910895CF93DF93CDB7DEB774
:1002300081E890E0FC0110820000DF91CF910895E9
:10024000CF93DF93CDB7DEB781E08093120100003A
:10025000DF91CF9108951F920F9200905F000F924F
:10026000112400905B000F922F933F934F935F9365
:100270006F937F938F939F93AF93BF93EF93FF936E
:10028000CF93DF93CDB7DEB7809113019091140126
:10029000A0911501B09116010197A109B1098093B0
:1002A000130190931401A0931501B093160180914E
:1002B000130190911401A0911501B0911601892BA1
:1002C0008A2B8B2B91F40E94200180910E0190913A
:1002D0000F01A0911001B09111018093130190932F
:1002E0001401A0931501B09316010000DF91CF9186
:1002F000FF91EF91BF91AF919F918F917F916F91FE
:100300005F914F913F912F910F9000925B000F9062
:1003100000925F000F901F901895CF93DF9300D04D
:1003200000D0CDB7DEB769837A838B839C838981C4
:100330009A81AB81BC8180930E0190930F01A093B1
:100340001001B093110180910E0190910F01A091C5
:100350001001B09111018093130190931401A093A7
:100360001501B093160100000F900F900F900F90A1
:10037000DF91CF910895CF93DF9300D0CDB7DEB753
:100380009A83898389819A8181309105D1F0823065
:10039000910559F1892B09F03CC080911701882300
:1003A00099F5809117018F5F809317018DEF8093EE
:1003B0001A018CE38093180181E090E09A8389838D
:1003C00023C080911701813009F5809117018F5F5B
:1003D000809317018BEF80931A0184E280931801B8
:1003E00082E090E09A83898311C080911701823066
:1003F00079F41092170187EF80931A018CE38093B0
:1004000018011A82198204C0000003C0000001C054
:100410000000809118018093190180911A01809346
:100420001B0189819A810F900F90DF91CF910895E0
:10043000CF93DF9300D0CDB7DEB79A83898380E274
:1004400090E0FC01808180958F7080931C018981F0
:100450009A818230910579F1833091052CF40097CF
:1004600049F0019719F156C083309105C9F10497FD
:10047000E1F150C080911C01882319F41A8219827D
:100480004CC080911C01813029F481E090E09A8376
:10049000898343C080911C01823029F483E090E07D
:1004A0009A8389833AC01A82198237C082E090E029
:1004B0009A83898332C080911C01813029F481E0C4
:1004C00090E09A83898329C080911C01823029F4AD
:1004D00083E090E09A83898320C01A8219821DC02C
:1004E00084E090E09A83898318C080911C01823057
:1004F00029F483E090E09A8389830FC080911C01E6
:10050000813029F481E090E09A83898306C01A82C1
:10051000198203C01A821982000089819A8182306F
:10052000910599F1833091052CF4009781F10197A1
:1005300039F030C083309105A1F0049751F12AC001
:1005400080911B018F3F39F080911B018695806F50
:1005500080931B011FC080911901880F809319019E
:1005600019C080911B01803F50F080911B01882FA2
:1005700090E0880F991F816080931B010BC08091D0
:10058000190186958093190105C0000003C0000081
:1005900001C00000809119018093360180911B01F8
:1005A0008093340188E290E020913601FC012083A1
:1005B0008BE290E020913401FC01208389819A81B3
:1005C0000F900F90DF91CF9108950F931F93CF93CA
:1005D000DF93CDB7DEB72F970FB6F894DEBF0FBE0F
:1005E000CDBF81E290E0FC01108282E290E02FEF2B
:1005F000FC01208387E290E02FEFFC01208388E25A
:1006000090E0FC0110828AE290E02FEFFC01208351
:100610008BE290E0FC0110828DE191E09D878C8758
:1006200088E291E09F878E8782E090E09A878987B1
:100630001B868B8580931D0181E090E0A0E0B0E0F7
:1006400080931E0190931F01A0932001B09321017C
:1006500080911E0190911F01A0912001B091210174
:100660008093220190932301A0932401B09325014C
:100670008BEB91E090932701809326018B858093EB
:10068000280181E090E0A0E0B0E080932901909300
:100690002A01A0932B01B0932C0180912901909104
:1006A0002A01A0912B01B0912C0180932D019093F0
:1006B0002E01A0932F01B093300188E192E0909336
:1006C0003201809331018C859D85FC01818192816D
:1006D000A381B48189839A83AB83BC8381E090E05A
:1006E0009E838D8325C08D819E81880F991F9E01D9
:1006F0002F5F3F4F820F931F0B96FC0180819181EA
:10070000FC01218132814381548189819A81AB81AD
:10071000BC81BC01CD010E949000DC01CB0189832A
:100720009A83AB83BC838D819E8101969E838D834A
:100730002D813E8189859A8528173907A0F2898104
:100740009A81AB81BC81BC01CD010E948D010E94C8
:10075000DD0018861F82A0C08F819885880F991FA1
:100760009E012F5F3F4F820F931F0B96FC018081EC
:100770009181FC0125813681478150858F81988543
:10078000880F991FBE016F5F7F4F860F971F0B96D3
:10079000FC0180819181FC0181819281A381B481DE
:1007A000281739074A075B0709F045C08F819885EC
:1007B000880F991F9E012F5F3F4F820F931F0B964B
:1007C000FC01008111818F819885880F991F9E01FE
:1007D0002F5F3F4F820F931F0B96FC018081918109
:1007E000FC01218532858F819885880F991FAE0184
:1007F0004F5F5F4F840F951F0B96FC0180819181A5
:10080000FC018081082E000C990BF9010995F80173
:1008100080838F819885880F991F9E012F5F3F4F9E
:10082000820F931F0B96FC0180819181FC01158240
:100830001682178210868F819885880F991F9E01D6
:100840002F5F3F4F820F931F0B96FC0160817181D8
:100850008F819885880F991F9E012F5F3F4F820FD0
:10086000931F0B96FC0180819181FC0125813681CB
:100870004781508589819A81AB81BC81820F931F0A
:10088000A41FB51FFB0185839683A783B0878F8143
:100890009885019698878F832F81388589859A85D9
:1008A0002817390708F458CF0000809112018823D7
:1008B000E1F3109212014DCFA1E21A2EAA1BBB1B2D
:1008C000FD010DC0AA1FBB1FEE1FFF1FA217B3071C
:1008D000E407F50720F0A21BB30BE40BF50B661F32
:1008E000771F881F991F1A9469F7609570958095F6
:1008F00090959B01AC01BD01CF010895F894FFCF05
:10090000000000020000000067000000000001007D
:020910000000E5
:00000001FF
