:100000000C9458000C9477000C9477000C947700B3
:100010000C9477000C9477000C9477000C94770084
:100020000C9477000C9477000C9477000C94770074
:100030000C9477000C943D010C9477000C9477009D
:100040000C9477000C9477000C9477000C94770054
:100050000C9477000C9477000C9477000C94770044
:100060000C9477000C9477000C9477000C94770034
:100070000C9477000C9477000C9477000C94770024
:100080000C9477000C9477000C947700CB02F90263
:10009000FE0225032A03510356037D0382034A040B
:1000A000C1034A04E2034A0406044A0426044A043B
:1000B00011241FBECFEFD0E4DEBFCDBF11E0A0E022
:1000C000B1E0E4E0FCE000E00BBF02C007900D925D
:1000D000A831B107D9F721E0A8E1B1E001C01D9234
:1000E000AB33B207E1F70E945E040C9400060C9457
:1000F0000000CF93DF9300D01F92CDB7DEB7898386
:100100007B836A8389818A3031F48A819B81BC0137
:100110008DE00E94790080EC90E0FC018081882FC6
:1001200090E080729927892BB1F386EC90E02981C9
:10013000FC01208380E090E00F900F900F90DF9102
:10014000CF910895CF93DF93CDB7DEB72C970FB63D
:10015000F894DEBF0FBECDBF6D837E838F839887FB
:1001600029873A874B875C878D819E81AF81B885CF
:1001700029853A854B855C85BC01CD010E94D5055A
:10018000DC01CB0189839A83AB83BC8389819A810B
:10019000AB81BC81892B8A2B8B2B29F489859A858D
:1001A000AB85BC8511C089859A85AB85BC858D835F
:1001B0009E83AF83B88789819A81AB81BC8189870F
:1001C0009A87AB87BC87D0CFBC01CD012C960FB6E8
:1001D000F894DEBF0FBECDBFDF91CF910895CF93CE
:1001E000DF93CDB7DEB781E890E02BE0FC01208300
:1001F00088E890E02DE730E0FC01318320838FE632
:1002000090E022E0FC01208384E890E0FC01118270
:10021000108280910E0190910F01A0911001B09178
:1002200011018093190190931A01A0931B01B093BF
:100230001C018FE590E02FE530E0F9012081206876
:10024000FC0120830000DF91CF910895CF93DF93CD
:10025000CDB7DEB781E890E0FC0110820000DF91AD
:10026000CF910895CF93DF93CDB7DEB781E0809330
:1002700018010000DF91CF9108951F920F92009016
:100280005F000F92112400905B000F922F933F9319
:100290004F935F936F937F938F939F93AF93BF938E
:1002A000EF93FF93CF93DF93CDB7DEB78091190122
:1002B00090911A01A0911B01B0911C010197A10915
:1002C000B1098093190190931A01A0931B01B09377
:1002D0001C018091190190911A01A0911B01B0910C
:1002E0001C01892B8A2B8B2B91F40E943201809167
:1002F0000E0190910F01A0911001B0911101809316
:10030000190190931A01A0931B01B0931C010000E6
:10031000DF91CF91FF91EF91BF91AF919F918F911D
:100320007F916F915F914F913F912F910F9000922C
:100330005B000F9000925F000F901F901895CF9375
:10034000DF9300D000D0CDB7DEB769837A838B838B
:100350009C8389819A81AB81BC8180930E019093AB
:100360000F01A0931001B093110180910E019091A3
:100370000F01A0911001B091110180931901909388
:100380001A01A0931B01B0931C0100000F900F9065
:100390000F900F90DF91CF910895CF93DF9300D00E
:1003A0001F92CDB7DEB78B831A82198227C088E2ED
:1003B00090E028E0FC01208388E290E028E230E031
:1003C000F9012081422F2B81222F30E0098002C0C9
:1003D000359527950A94E2F72170242BFC012083A0
:1003E00088E290E028E230E0F90120812260FC01FF
:1003F000208389819A8101969A83898389819A8150
:100400000897ACF288E290E028E230E0F901208120
:100410002460FC01208388E290E0FC01108200004F
:100420000F900F900F90DF91CF910895CF93DF93AE
:1004300000D01F92CDB7DEB78B831A82198227C0F6
:100440008BE290E028E0FC0120838BE290E02BE23D
:1004500030E0F9012081422F2B81222F30E00980EA
:1004600002C0359527950A94E2F72170242BFC01F0
:1004700020838BE290E02BE230E0F90120812260C2
:10048000FC01208389819A8101969A8389838981DD
:100490009A810897ACF28BE290E02BE230E0F90110
:1004A00020812460FC0120838BE290E0FC0110821B
:1004B00000000F900F900F90DF91CF910895CF9390
:1004C000DF9300D0CDB7DEB79A8389831A82198271
:1004D000000089819A81892B09F025C080911D0136
:1004E0008330D0F480911D01882F90E08B5E9E4F69
:1004F000FC0180818093390180911D01882F90E05B
:100500008E5E9E4FFC01808180933A0180911D0197
:100510008F5F80931D0106C080911D01833011F40F
:1005200010921D010000809139010E94CD0180913F
:100530003A010E94160289819A810F900F90DF91F3
:10054000CF910895CF93DF93CDB7DEB72A970FB63B
:10055000F894DEBF0FBECDBF9A87898780E290E016
:10056000FC01808180958F7080931E0189859A851A
:10057000092E000CAA0BBB0B40E050E028E030E055
:10058000841B950B2817390708F4E3C08A5B9F4F3B
:10059000FC010C94F70580911E01882319F41A863A
:1005A0001986DAC080911E01813029F481E090E043
:1005B0009A878987D1C080911E01823029F483E017
:1005C00090E09A878987C8C080911E01843029F401
:1005D00085E090E09A878987BFC080911E018830AE
:1005E00029F487E090E09A878987B6C01A86198631
:1005F000B3C082E090E09A878987AEC080911E01E7
:10060000813029F481E090E09A878987A5C08091A4
:100610001E01823029F483E090E09A8789879CC08C
:1006200080911E01843029F485E090E09A878987C3
:1006300093C080911E01883029F487E090E09A876A
:1006400089878AC01A86198687C084E090E09A87D5
:10065000898782C080911E01823029F483E090E076
:100660009A87898779C080911E01813029F481E0C1
:1006700090E09A87898770C080911E01843029F4A8
:1006800085E090E09A87898767C080911E01883055
:1006900029F487E090E09A8789875EC01A861986D8
:1006A0005BC086E090E09A87898756C080911E01E2
:1006B000843029F485E090E09A8789874DC0809145
:1006C0001E01883029F487E090E09A87898744C02A
:1006D00080911E01813029F481E090E09A8789871A
:1006E0003BC080911E01823029F483E090E09A871C
:1006F000898732C01A8619862FC088E090E09A87D1
:1007000089872AC080911E01883029F487E090E013
:100710009A87898721C080911E01843029F485E061
:1007200090E09A87898718C080911E01813029F452
:1007300081E090E09A8789870FC080911E01823006
:1007400029F483E090E09A87898706C01A86198683
:1007500003C01A861986000089859A85092E000C27
:10076000AA0BBB0B40E050E028E030E0841B950B67
:100770002817390708F48CC0815B9F4FFC010C944B
:10078000F705809112018E3F09F486C01A82198202
:1007900014C089819A818E5E9E4FFC01808186956E
:1007A000282F206889819A818E5E9E4FFC012083CC
:1007B00089819A8101969A83898389819A81039795
:1007C00044F36AC0809114018F3E09F467C01C8213
:1007D0001B8217C08B819C818E5E9E4FFC018081A5
:1007E000882F90E0880F991F8160282F8B819C8132
:1007F0008E5E9E4FFC0120838B819C8101969C83A1
:100800008B838B819C8103972CF348C080911701C7
:100810008F3009F445C01E821D8213C08D819E81D8
:100820008B5E9E4FFC018081282F26958D819E81B5
:100830008B5E9E4FFC0120838D819E8101969E835D
:100840008D838D819E8103974CF32AC0809117017F
:10085000803F41F118861F8216C08F8198858B5E7C
:100860009E4FFC018081882F90E0880F991F282FD0
:100870008F8198858B5E9E4FFC0120838F819885A8
:10088000019698878F838F819885039734F30AC0E8
:10089000000009C0000007C0000005C0000003C040
:1008A000000001C0000089859A852A960FB6F89449
:1008B000DEBF0FBECDBFDF91CF9108950F931F9381
:1008C000CF93DF93CDB7DEB72F970FB6F894DEBF87
:1008D0000FBECDBF81E290E0FC01108282E290E089
:1008E0002FEFFC01208387E290E02FEFFC012083B3
:1008F00088E290E0FC0110828AE290E02FEFFC0198
:1009000020838BE290E0FC0110828FE191E09D87D3
:100910008C878AE291E09F878E8782E090E09A87B9
:1009200089871B868B8580931F018AE590E0A0E074
:10093000B0E08093200190932101A0932201B09315
:1009400023018091200190912101A0912201B09179
:1009500023018093240190932501A0932601B09355
:10096000270182EA92E090932901809328018B85E8
:1009700080932A0181E090E0A0E0B0E080932B0119
:1009800090932C01A0932D01B0932E0180912B0107
:1009900090912C01A0912D01B0912E0180932F01F7
:1009A00090933001A0933101B09332018FE592E032
:1009B00090933401809333018C859D85FC01818166
:1009C0009281A381B48189839A83AB83BC8381E0C4
:1009D00090E09E838D8325C08D819E81880F991F15
:1009E0009E012F5F3F4F820F931F0B96FC0180816A
:1009F0009181FC01218132814381548189819A81D5
:100A0000AB81BC81BC01CD010E94A200DC01CB0105
:100A100089839A83AB83BC838D819E8101969E835B
:100A20008D832D813E8189859A8528173907A0F20B
:100A300089819A81AB81BC81BC01CD010E949F015B
:100A40000E94EF0018861F82A0C08F819885880FB2
:100A5000991F9E012F5F3F4F820F931F0B96FC0142
:100A600080819181FC0125813681478150858F816C
:100A70009885880F991FBE016F5F7F4F860F971F64
:100A80000B96FC0180819181FC0181819281A3817F
:100A9000B481281739074A075B0709F045C08F81E1
:100AA0009885880F991F9E012F5F3F4F820F931FDC
:100AB0000B96FC01008111818F819885880F991F09
:100AC0009E012F5F3F4F820F931F0B96FC01808189
:100AD0009181FC01218532858F819885880F991F2E
:100AE000AE014F5F5F4F840F951F0B96FC01808115
:100AF0009181FC018081082E000C990BF901099568
:100B0000F80180838F819885880F991F9E012F5F40
:100B10003F4F820F931F0B96FC0180819181FC0156
:100B200015821682178210868F819885880F991FEB
:100B30009E012F5F3F4F820F931F0B96FC01608138
:100B400071818F819885880F991F9E012F5F3F4F7C
:100B5000820F931F0B96FC0180819181FC012581FE
:100B600036814781508589819A81AB81BC81820F12
:100B7000931FA41FB51FFB0185839683A783B087AE
:100B80008F819885019698878F832F8138858985F5
:100B90009A852817390708F458CF0000809118016A
:100BA0008823E1F3109218014DCFA1E21A2EAA1B5F
:100BB000BB1BFD010DC0AA1FBB1FEE1FFF1FA2170D
:100BC000B307E407F50720F0A21BB30BE40BF50B0A
:100BD000661F771F881F991F1A9469F76095709593
:100BE000809590959B01AC01BD01CF010895EE0F5A
:100BF000FF1F0024001C0BBE0790F691E02D099406
:040C0000F894FFCF96
:100C04000000000200000000790000000000010064
:080C14000000FDFBF73C243C4D
:00000001FF
