:100000000C9446000C9465000C9465000C946500FB
:100010000C9465000C9465000C9465000C946500CC
:100020000C9465000C9465000C9465000C946500BC
:100030000C9465000C94B5000C9465000C9465005C
:100040000C9465000C9465000C9465000C9465009C
:100050000C9465000C9465000C9465000C9465008C
:100060000C9465000C9465000C9465000C9465007C
:100070000C9465000C9465000C9465000C9465006C
:100080000C9465000C9465000C94650011241FBE4F
:10009000CFEFD0E4DEBFCDBF11E0A0E0B1E0E8E8F3
:1000A000F5E000E00BBF02C007900D92A431B1074C
:1000B000D9F721E0A4E1B1E001C01D92AD31B20752
:1000C000E1F70E9496020C94C2020C940000CF93B8
:1000D000DF93CDB7DEB781E890E02BE0FC01208311
:1000E00088E890E02DE730E0FC01318320838FE643
:1000F00090E022E0FC01208384E890E0FC01118282
:1001000010828091000190910101A0910201B091B3
:1001100003018093150190931601A0931701B093EA
:1001200018018FE590E02FE530E0F901208120688B
:10013000FC0120830000DF91CF910895CF93DF93DE
:10014000CDB7DEB781E890E0FC0110820000DF91BE
:10015000CF910895CF93DF93CDB7DEB781E0809341
:1001600014010000DF91CF9108951F920F9200902B
:100170005F000F92112400905B000F922F933F932A
:100180004F935F936F937F938F939F93AF93BF939F
:10019000EF93FF93CF93DF93CDB7DEB78091150137
:1001A00090911601A0911701B09118010197A10932
:1001B000B1098093150190931601A0931701B09394
:1001C00018018091150190911601A0911701B0912D
:1001D0001801892B8A2B8B2B91F40E94AA00809105
:1001E000000190910101A0910201B091030180935F
:1001F000150190931601A0931701B0931801000008
:10020000DF91CF91FF91EF91BF91AF919F918F912E
:100210007F916F915F914F913F912F910F9000923D
:100220005B000F9000925F000F901F901895CF9386
:10023000DF9300D000D0CDB7DEB769837A838B839C
:100240009C8389819A81AB81BC81809300019093CA
:100250000101A0930201B0930301809100019091EC
:100260000101A0910201B0910301809315019093C7
:100270001601A0931701B093180100000F900F9082
:100280000F900F90DF91CF910895CF93DF9300D01F
:100290001F92CDB7DEB789837B836A8389818A30D9
:1002A00031F48A819B81BC018DE00E94450180EC84
:1002B00090E0FC018081882F90E080729927892B43
:1002C000B1F386EC90E02981FC01208380E090E08E
:1002D0000F900F900F90DF91CF910895CF93DF9300
:1002E000CDB7DEB780E290E0FC018081882F90E0FE
:1002F0008170992721E0892B09F020E0822F8093DB
:100300001C0180E290E0FC018081809582708093E6
:10031000190180911A0190911B0182309105A1F180
:100320008330910528F4009779F0019741F1B4C02A
:100330008430910509F465C08430910508F45CC0EF
:10034000059709F495C0A8C080911C01882339F055
:1003500082E090E090931B0180931A01A5C08091E8
:100360001901882339F084E090E090931B01809379
:100370001A019AC010921B0110921A0195C0109296
:100380001B0110921A0190C080911C01882359F022
:1003900080911901882339F085E090E090931B014A
:1003A00080931A017EC080911C018823F1F0809116
:1003B0001C01882389F006C081E090E090931B0126
:1003C00080931A0180911401882309F06AC08091FA
:1003D0001C01882389F765C082E090E090931B019F
:1003E00080931A010E9467005CC081E090E09093C6
:1003F0001B0180931A0155C010921B0110921A0123
:1004000053C080911C01882359F0809119018823E1
:1004100039F085E090E090931B0180931A0143C06E
:10042000809119018823E9F080911901882381F0D6
:1004300006C083E090E090931B0180931A018091A5
:100440001401882381F580911901882391F72BC02D
:1004500084E090E090931B0180931A010E94670052
:1004600022C083E090E090931B0180931A011BC08F
:1004700080911C01882359F080911901882339F05B
:1004800085E090E090931B0180931A010DC01092BB
:100490001B0110921A0108C010921B0110921A0140
:1004A00003C0000001C0000080911A0190911B015F
:1004B0008230910561F18330910528F4009749F16C
:1004C000019751F029C08430910529F184309105BC
:1004D00078F00597C9F020C080911201893028F486
:1004E000809112018F5F809312011092140114C049
:1004F00080911201882329F080911201815080930C
:1005000012011092140108C01092120105C00000DF
:1005100003C0000001C0000085E290E020911201BC
:10052000FC0120830000DF91CF910895CF93DF93EA
:10053000CDB7DEB781E290E0FC01108282E290E06C
:100540002FEFFC01208384E290E02FEFFC01208359
:1005500085E290E0FC01108264E670E080E090E0CB
:100560000E9417010E94670010921B0110921A014D
:100570000E946E010000809114018823E1F3109223
:080580001401F6CFF894FFCF3F
:10058800010000000000000200000000450100001A
:040598000000070058
:00000001FF
