:100000000C9446000C945D000C945D000C945D0013
:100010000C945D000C945D000C945D000C945D00EC
:100020000C945D000C945D000C945D000C945D00DC
:100030000C945D000C945D000C945D000C945D00CC
:100040000C945D000C945D000C945D000C945D00BC
:100050000C945D000C945D000C945D000C945D00AC
:100060000C945D000C945D000C945D000C945D009C
:100070000C945D000C945D000C945D000C945D008C
:100080000C945D000C945D000C945D0011241FBE67
:10009000CFEFD0E4DEBFCDBF11E0A0E0B1E0EEEDE8
:1000A000F2E000E00BBF02C007900D92AE30B10746
:1000B000D9F70E9499000C946D010C940000CF9325
:1000C000DF9300D01F92CDB7DEB789837B836A832D
:1000D00089818A3031F48A819B81BC018DE00E9444
:1000E0005F0080EC90E0FC018081882F90E08072BE
:1000F0009927892BB1F386EC90E02981FC012083BC
:1001000080E090E00F900F900F90DF91CF910895D5
:10011000CF93DF93CDB7DEB78AE790E02AE730E0F0
:10012000F9012081206EFC0120830000DF91CF9136
:100130000895CF93DF93CDB7DEB72B970FB6F89422
:10014000DEBF0FBECDBF81E290E0FC01108282E2F3
:1001500090E02FEFFC01208384E290E02FEFFC0180
:10016000208385E290E0FC0110820E9488001982C1
:1001700088E690E09B838A8380E390E09D838C8374
:1001800088E790E0FC01808191819F838E838A8142
:100190009B8196958795969587959695879599874E
:1001A00088878C819D819B878A872E813F818A8564
:1001B0009B858217930710F481E089832A853B850C
:1001C00088859985280F391F8E819F8128173907C7
:1001D00018F4898182608983888599859C01220F22
:1001E000331F8A859B85280F391F8E819F81281791
:1001F000390718F489818460898328853985C90184
:10020000880F991F280F391F8A859B85280F391F52
:100210008E819F812817390718F489818860898326
:10022000888599859C01220F331F220F331F8A85F1
:100230009B85280F391F8E819F812817390718F455
:1002400089818061898328853985C901880F991F33
:10025000880F991F280F391F8A859B85280F391F02
:100260008E819F812817390718F4898180628983DC
:1002700028853985C901880F991F820F931F880F20
:10028000991F9C018A859B85280F391F8E819F812C
:100290002817390718F4898180648983288539856E
:1002A000C901880F991F880F991F880F991FAC01EA
:1002B000421B530B9A018A859B85280F391F8E811B
:1002C0009F812817390718F489818068898385E21E
:0E02D00090E02981FC01208353CFF894FFCFEA
:0E02DE0000000002000000005F0000000000B1
:00000001FF
