:100000000C9446000C9465000C9465000C946500FB
:100010000C9465000C9465000C9465000C946500CC
:100020000C9465000C9465000C9465000C946500BC
:100030000C9465000C942B010C9465000C946500E5
:100040000C9465000C9465000C9465000C9465009C
:100050000C9465000C9465000C9465000C9465008C
:100060000C9465000C9465000C9465000C9465007C
:100070000C9465000C9465000C9465000C9465006C
:100080000C9465000C9465000C94650011241FBE4F
:10009000CFEFD0E4DEBFCDBF11E0A0E0B1E0E8E9F2
:1000A000F9E000E00BBF02C007900D92A231B1074A
:1000B000D9F721E0A2E1B1E001C01D92A632B2075A
:1000C000E1F70E9463030C94CA040C940000CF93E0
:1000D000DF9300D01F92CDB7DEB789837B836A831D
:1000E00089818A3031F48A819B81BC018DE00E9434
:1000F000670080EC90E0FC018081882F90E08072A6
:100100009927892BB1F386EC90E02981FC012083AB
:1001100080E090E00F900F900F90DF91CF910895C5
:10012000CF93DF93CDB7DEB72C970FB6F894DEBF31
:100130000FBECDBF6D837E838F83988729873A87D3
:100140004B875C878D819E81AF81B88529853A85F3
:100150004B855C85BC01CD010E94A804DC01CB016C
:1001600089839A83AB83BC8389819A81AB81BC816B
:10017000892B8A2B8B2B29F489859A85AB85BC85A5
:1001800011C089859A85AB85BC858D839E83AF839D
:10019000B88789819A81AB81BC8189879A87AB872F
:1001A000BC87D0CFBC01CD012C960FB6F894DEBF32
:1001B0000FBECDBFDF91CF910895CF93DF93CDB721
:1001C000DEB781E890E02BE0FC01208388E890E036
:1001D0002DE730E0FC01318320838FE690E022E0C0
:1001E000FC01208384E890E0FC0111821082809160
:1001F0000E0190910F01A0911001B0911101809317
:10020000130190931401A0931501B09316018FE58B
:1002100090E02FE530E0F90120812068FC01208387
:100220000000DF91CF910895CF93DF93CDB7DEB774
:1002300081E890E0FC0110820000DF91CF910895E9
:10024000CF93DF93CDB7DEB781E08093120100003A
:10025000DF91CF9108951F920F9200905F000F924F
:10026000112400905B000F922F933F934F935F9365
:100270006F937F938F939F93AF93BF93EF93FF936E
:10028000CF93DF93CDB7DEB7809113019091140126
:10029000A0911501B09116010197A109B1098093B0
:1002A000130190931401A0931501B093160180914E
:1002B000130190911401A0911501B0911601892BA1
:1002C0008A2B8B2B91F40E94200180910E0190913A
:1002D0000F01A0911001B09111018093130190932F
:1002E0001401A0931501B09316010000DF91CF9186
:1002F000FF91EF91BF91AF919F918F917F916F91FE
:100300005F914F913F912F910F9000925B000F9062
:1003100000925F000F901F901895CF93DF9300D04D
:1003200000D0CDB7DEB769837A838B839C838981C4
:100330009A81AB81BC8180930E0190930F01A093B1
:100340001001B093110180910E0190910F01A091C5
:100350001001B09111018093130190931401A093A7
:100360001501B093160100000F900F900F900F90A1
:10037000DF91CF910895CF93DF9300D01F92CDB737
:10038000DEB78B831A82198227C088E290E028E0CA
:10039000FC01208388E290E028E230E0F90120812E
:1003A000422F2B81222F30E0098002C035952795FE
:1003B0000A94E2F72170242BFC01208388E290E06C
:1003C00028E230E0F90120812260FC01208389814C
:1003D0009A8101969A83898389819A810897ACF2E0
:1003E00088E290E028E230E0F90120812460FC01FD
:1003F000208388E290E0FC01108200000F900F90B3
:100400000F90DF91CF910895CF93DF9300D0CDB7B8
:10041000DEB79A83898380E290E0FC018081882F97
:1004200090E08170992721E0892B09F020E0822F4C
:100430008093190180E290E0FC01808180958270B8
:1004400080931A0189819A818230910509F451C003
:10045000833091052CF4009779F00197C1F1D0C059
:100460008430910509F483C0843091050CF46EC08A
:10047000059709F4A9C0C4C080911901882339F4F3
:1004800080911A01882319F41A8219821FC0809161
:100490001901882349F080911A01882329F481E009
:1004A00090E09A83898312C080911901882349F4CE
:1004B00080911A01882329F083E090E09A83898350
:1004C00005C085E090E09A8389839DC09CC080919F
:1004D0001901882349F080911A01882329F085E0C9
:1004E00090E09A8389838FC082E090E09A83898329
:1004F0008AC080911901882349F080911A018823CC
:1005000029F085E090E09A8389831FC080911901CA
:10051000882349F080911A01882329F481E090E032
:100520009A83898312C080911901882349F48091AC
:100530001A01882329F083E090E09A83898305C01B
:1005400082E090E09A8389835EC05DC0809119014A
:10055000882349F080911A01882329F085E090E0F2
:100560009A83898304C084E090E09A838983809190
:100570001901882349F080911A01882329F085E028
:1005800090E09A8389831FC080911901882349F4E0
:1005900080911A01882329F083E090E09A8389836F
:1005A00012C080911901882349F080911A01882393
:1005B00029F481E090E09A83898305C084E090E08B
:1005C0009A83898320C01FC080911901882339F440
:1005D00080911A01882319F41A82198210C080911F
:1005E0001901882349F080911A01882329F085E0B8
:1005F00090E09A83898303C01A82198204C003C0E1
:100600001A821982000089819A818230910509F449
:1006100050C0833091052CF4009769F00197C1F028
:1006200045C08430910509F446C08430910504F139
:100630000597A1F13BC08FEF92E090931801809352
:10064000170180911701909118010E94BB0134C0DD
:100650008091170190911801019690931801809351
:10066000170180911701909118010E94BB0124C0CD
:100670008091170190911801892B49F08091170101
:100680009091180101979093180180931701809120
:100690001701909118010E94BB010EC01092180121
:1006A0001092170180E00E94BB0106C01A821982D5
:1006B00003C0000001C0000089819A810F900F9053
:1006C000DF91CF9108950F931F93CF93DF93CDB711
:1006D000DEB72D970FB6F894DEBF0FBECDBF81E217
:1006E00090E0FC01108282E290E02FEFFC01208379
:1006F00087E290E02FEFFC01208388E290E0FC018C
:1007000010828BE191E09D878C8781E090E09A8751
:1007100089871B868B8580931B0184E690E0A0E08F
:10072000B0E080931C0190931D01A0931E01B09333
:100730001F0180911C0190911D01A0911E01B0919B
:100740001F018093200190932101A0932201B09377
:10075000230184E092E090932501809324018C850D
:100760009D85FC0181819281A381B48189839A83D3
:10077000AB83BC8381E090E09E838D8325C08D8117
:100780009E81880F991F9E012F5F3F4F820F931FFD
:100790000B96FC0180819181FC0121813281438192
:1007A000548189819A81AB81BC81BC01CD010E94B9
:1007B0009000DC01CB0189839A83AB83BC838D815C
:1007C0009E8101969E838D832D813E8189859A85A8
:1007D00028173907A0F289819A81AB81BC81BC01BD
:1007E000CD010E948D010E94DD0018861F82A0C0ED
:1007F0008F819885880F991F9E012F5F3F4F820F31
:10080000931F0B96FC0180819181FC01258136812B
:10081000478150858F819885880F991FBE016F5F32
:100820007F4F860F971F0B96FC0180819181FC0101
:1008300081819281A381B481281739074A075B0718
:1008400009F045C08F819885880F991F9E012F5F01
:100850003F4F820F931F0B96FC01008111818F8106
:100860009885880F991F9E012F5F3F4F820F931F1E
:100870000B96FC0180819181FC01218532858F815D
:100880009885880F991FAE014F5F5F4F840F951FAA
:100890000B96FC0180819181FC018081082E000C67
:1008A000990BF9010995F80180838F819885880F4C
:1008B000991F9E012F5F3F4F820F931F0B96FC01E4
:1008C00080819181FC0115821682178210868F81AA
:1008D0009885880F991F9E012F5F3F4F820F931FAE
:1008E0000B96FC01608171818F819885880F991F1B
:1008F0009E012F5F3F4F820F931F0B96FC0180815B
:100900009181FC01258136814781508589819A81B9
:10091000AB81BC81820F931FA41FB51FFB01858390
:100920009683A783B0878F819885019698878F8358
:100930002F81388589859A852817390708F458CF7B
:100940000000809112018823E1F3109212014DCF33
:10095000A1E21A2EAA1BBB1BFD010DC0AA1FBB1FC3
:10096000EE1FFF1FA217B307E407F50720F0A21B35
:10097000B30BE40BF50B661F771F881F991F1A94A2
:1009800069F760957095809590959B01AC01BD01CC
:08099000CF010895F894FFCF98
:1009980000000002000000006700000000000100E5
:0209A80000004D
:00000001FF
