:100000000C9446000C9465000C9465000C946500FB
:100010000C9465000C9465000C9465000C946500CC
:100020000C9465000C9465000C9465000C946500BC
:100030000C9465000C94B5000C9465000C9465005C
:100040000C9465000C9465000C9465000C9465009C
:100050000C9465000C9465000C9465000C9465008C
:100060000C9465000C9465000C9465000C9465007C
:100070000C9465000C9465000C9465000C9465006C
:100080000C9465000C9465000C94650011241FBE4F
:10009000CFEFD0E4DEBFCDBF11E0A0E0B1E0E4EAF5
:1000A000F7E000E00BBF02C007900D92A431B1074A
:1000B000D9F721E0A4E1B1E001C01D92A832B20756
:1000C000E1F70E941B030C94D0030C940000CF9323
:1000D000DF93CDB7DEB781E890E02BE0FC01208311
:1000E00088E890E02DE730E0FC01318320838FE643
:1000F00090E022E0FC01208384E890E0FC01118282
:1001000010828091000190910101A0910201B091B3
:1001100003018093150190931601A0931701B093EA
:1001200018018FE590E02FE530E0F901208120688B
:10013000FC0120830000DF91CF910895CF93DF93DE
:10014000CDB7DEB781E890E0FC0110820000DF91BE
:10015000CF910895CF93DF93CDB7DEB781E0809341
:1001600014010000DF91CF9108951F920F9200902B
:100170005F000F92112400905B000F922F933F932A
:100180004F935F936F937F938F939F93AF93BF939F
:10019000EF93FF93CF93DF93CDB7DEB78091150137
:1001A00090911601A0911701B09118010197A10932
:1001B000B1098093150190931601A0931701B09394
:1001C00018018091150190911601A0911701B0912D
:1001D0001801892B8A2B8B2B91F40E94AA00809105
:1001E000000190910101A0910201B091030180935F
:1001F000150190931601A0931701B0931801000008
:10020000DF91CF91FF91EF91BF91AF919F918F912E
:100210007F916F915F914F913F912F910F9000923D
:100220005B000F9000925F000F901F901895CF9386
:10023000DF9300D000D0CDB7DEB769837A838B839C
:100240009C8389819A81AB81BC81809300019093CA
:100250000101A0930201B0930301809100019091EC
:100260000101A0910201B0910301809315019093C7
:100270001601A0931701B093180100000F900F9082
:100280000F900F90DF91CF910895CF93DF9300D01F
:100290001F92CDB7DEB789837B836A8389818A30D9
:1002A00031F48A819B81BC018DE00E94450180EC84
:1002B00090E0FC018081882F90E080729927892B43
:1002C000B1F386EC90E02981FC01208380E090E08E
:1002D0000F900F900F90DF91CF910895CF93DF9300
:1002E000CDB7DEB780911D0190911E01813091053F
:1002F00069F08130910518F0029779F013C081E020
:1003000090E090931E0180931D0111C082E090E067
:1003100090931E0180931D010AC010921E0110923D
:100320001D0105C010921E0110921D010000809158
:100330001D0190911E018130910551F08130910590
:1003400018F0029749F00CC081E08093190108C0B1
:1003500082E08093190104C084E0809319010000B9
:100360000000DF91CF910895CF93DF93CDB7DEB733
:1003700080911B0190911C01009719F0019741F0A9
:1003800008C081E090E090931C0180931B0101C0A4
:10039000000080911B0190911C01009761F0019772
:1003A00009F00AC09091120181E0992309F080E0E0
:1003B0008093120101C000000000DF91CF910895E9
:1003C000CF93DF93CDB7DEB780E290E0FC01808170
:1003D0008095847080932701809122019091230160
:1003E0008130910569F08130910518F0029799F0FC
:1003F0001DC081E090E090932301809322011EC0F4
:10040000809127018430B9F482E090E09093230139
:100410008093220110C080912701882371F081E030
:1004200090E0909323018093220107C01092230152
:100430001092220103C0000001C00000809122013F
:10044000909123018130910531F08130910550F078
:10045000029721F008C010921A0105C081E0809334
:100460001A0101C000000000DF91CF910895CF93E1
:10047000DF93CDB7DEB780E290E0FC018081882F6A
:1004800090E08170992721E0892B09F020E0822FEC
:100490008093260180E290E0FC018081809582704B
:1004A00080931F0180912401909125018230910554
:1004B000D9F18330910528F4009759F0019769F13B
:1004C0005AC08330910509F43FC0049709F443C032
:1004D00052C080912601882359F080911F01882302
:1004E00039F481E090E0909325018093240114C0B9
:1004F00080912601882359F480911F01882339F0C7
:1005000083E090E0909325018093240105C0109230
:100510002501109224012FC02EC082E090E090931C
:1005200025018093240127C080912601882339F07A
:1005300082E090E090932501809324011CC01092EA
:1005400025011092240117C084E090E090932501CA
:100550008093240110C080911F01882339F084E02A
:1005600090E0909325018093240104C0109225010E
:100570001092240100008091240190912501823085
:100580009105D1F08330910528F40097B9F00197D7
:1005900039F017C08330910549F0049789F011C0F4
:1005A000809113018F5F809313010BC08091130121
:1005B00081508093130105C0000003C0000001C0FA
:1005C00000000000DF91CF910895CF93DF93CDB766
:1005D000DEB78091200190912101892B09F001C0A3
:1005E00000008091200190912101892B09F01FC00A
:1005F00085E290E020911201222F30E0220F331F7C
:10060000220F331F220F331F322F20911901432F46
:10061000422B20911A01222F30E022953295307F13
:100620003227207F3227242BFC012083000000008A
:10063000DF91CF910895CF93DF93CDB7DEB7609769
:100640000FB6F894DEBF0FBECDBF81E290E0FC0193
:10065000108282E290E02FEFFC01208384E290E0A0
:100660002FEFFC01208385E290E0FC0110828CE2F8
:1006700091E0A0E0B0E089839A83AB83BC8388EEED
:1006800093E0A0E0B0E08D839E83AF83B88781E0E4
:1006900090E0A0E0B0E08D879E87AF87B88B82E0C6
:1006A00090E0A0E0B0E089879A87AB87BC870E9482
:1006B00067008D859E85AF85B889BC01CD010E94FC
:1006C000170189819A81AB81BC818C329140A1054F
:1006D000B10530F00E946E0119821A821B821C82C1
:1006E0008D819E81AF81B885883E9340A105B1057B
:1006F00030F00E94B4011D821E821F8218868091F4
:100700001301282F30E040E050E089859A85AB85C1
:10071000BC8582179307A407B50730F00E94E0015B
:1007200019861A861B861C860E9437020E94E502E3
:100730000000809114018823E1F3109214012981B3
:100740003A814B815C818D859E85AF85B889820F0A
:10075000931FA41FB51F89839A83AB83BC832D810C
:100760003E814F8158858D859E85AF85B889820FE2
:10077000931FA41FB51F8D839E83AF83B8872985E0
:100780003A854B855C858D859E85AF85B889820FBE
:10079000931FA41FB51F89879A87AB87BC8791CF0A
:0407A000F894FFCFFB
:1007A40001000000000000020000000045010000FC
:0407B400000001023E
:00000001FF
