:100000000C9446000C9465000C9465000C946500FB
:100010000C9465000C9465000C9465000C946500CC
:100020000C9465000C9465000C9465000C946500BC
:100030000C9465000C94B5000C9465000C9465005C
:100040000C9465000C9465000C9465000C9465009C
:100050000C9465000C9465000C9465000C9465008C
:100060000C9465000C9465000C9465000C9465007C
:100070000C9465000C9465000C9465000C9465006C
:100080000C9465000C9465000C94650011241FBE4F
:10009000CFEFD0E4DEBFCDBF11E0A0E0B1E0E0E5FE
:1000A000F6E000E00BBF02C007900D92A231B1074D
:1000B000D9F721E0A2E1B1E001C01D92A332B2075D
:1000C000E1F70E947A020C9426030C940000CF936F
:1000D000DF93CDB7DEB781E890E02BE0FC01208311
:1000E00088E890E02DE730E0FC01318320838FE643
:1000F00090E022E0FC01208384E890E0FC01118282
:1001000010828091000190910101A0910201B091B3
:1001100003018093130190931401A0931501B093F0
:1001200016018FE590E02FE530E0F901208120688D
:10013000FC0120830000DF91CF910895CF93DF93DE
:10014000CDB7DEB781E890E0FC0110820000DF91BE
:10015000CF910895CF93DF93CDB7DEB781E0809341
:1001600012010000DF91CF9108951F920F9200902D
:100170005F000F92112400905B000F922F933F932A
:100180004F935F936F937F938F939F93AF93BF939F
:10019000EF93FF93CF93DF93CDB7DEB78091130139
:1001A00090911401A0911501B09116010197A10938
:1001B000B1098093130190931401A0931501B0939A
:1001C00016018091130190911401A0911501B09135
:1001D0001601892B8A2B8B2B91F40E94AA00809107
:1001E000000190910101A0910201B091030180935F
:1001F000130190931401A0931501B0931601000010
:10020000DF91CF91FF91EF91BF91AF919F918F912E
:100210007F916F915F914F913F912F910F9000923D
:100220005B000F9000925F000F901F901895CF9386
:10023000DF9300D000D0CDB7DEB769837A838B839C
:100240009C8389819A81AB81BC81809300019093CA
:100250000101A0930201B0930301809100019091EC
:100260000101A0910201B0910301809313019093C9
:100270001401A0931501B093160100000F900F9088
:100280000F900F90DF91CF910895CF93DF9300D01F
:100290001F92CDB7DEB789837B836A8389818A30D9
:1002A00031F48A819B81BC018DE00E94450180EC84
:1002B00090E0FC018081882F90E080729927892B43
:1002C000B1F386EC90E02981FC01208380E090E08E
:1002D0000F900F900F90DF91CF910895CF93DF9300
:1002E000CDB7DEB780911C0190911D018130910541
:1002F00069F08130910518F0029779F013C081E020
:1003000090E090931D0180931C0111C082E090E069
:1003100090931D0180931C010AC010921D01109240
:100320001C0105C010921D0110921C01000080915B
:100330001C0190911D018130910551F08130910592
:1003400018F0029749F00CC081E08093170108C0B3
:1003500082E08093170104C084E0809317010000BD
:100360000000DF91CF910895CF93DF93CDB7DEB733
:1003700080911A0190911B01009719F0019741F0AB
:100380000CC081E090E090931B0180931A010AC099
:1003900010921B0110921A0105C010921B011092BD
:1003A0001A01000080911A0190911B01009719F029
:1003B000019729F007C088E08093180103C01092CC
:1003C000180100000000DF91CF910895CF93DF93D3
:1003D000CDB7DEB780912001909121018130910548
:1003E00069F08130910518F00297D1F020C081E0CA
:1003F00090E090932101809320011EC08091220102
:10040000882339F082E090E09093210180932001CD
:1004100013C081E090E090932101809320010CC0F3
:1004200081E090E0909321018093200105C010921B
:100430002101109220010000809120019091210162
:100440008130910531F08130910550F0029721F013
:1004500008C01092190105C080E18093190101C004
:1004600000000000DF91CF910895CF93DF93CDB7C7
:10047000DEB780911E0190911F01009719F001973E
:1004800041F00CC081E090E090931F0180931E0129
:100490000AC010921F0110921E0105C010921F0188
:1004A00010921E01000080911E0190911F01009783
:1004B00019F0019771F01AC085E290E030911701B0
:1004C00020911801322B20911901232BFC0120834C
:1004D0000DC085E290E03091170120911801322B78
:1004E00020911901232BFC01208300000000DF91E3
:1004F000CF910895CF93DF93CDB7DEB760970FB656
:10050000F894DEBF0FBECDBF81E290E0FC01108207
:1005100082E290E02FEFFC01208384E290E02FEF55
:10052000FC01208385E290E0FC0110828CE291E0E6
:10053000A0E0B0E089839A83AB83BC8388EE93E02C
:10054000A0E0B0E08D839E83AF83B88782E090E027
:10055000A0E0B0E08D879E87AF87B88B82E090E007
:10056000A0E0B0E089879A87AB87BC870E946700CC
:100570008D859E85AF85B889BC01CD010E9417018C
:1005800089819A81AB81BC818C329140A105B105F2
:1005900030F00E946E0119821A821B821C828D81AA
:1005A0009E81AF81B885883E9340A105B10530F0AA
:1005B0000E94B4011D821E821F82188689859A8539
:1005C000AB85BC850297A105B10530F00E94E6011C
:1005D00019861A861B861C860E94350200008091AF
:1005E00012018823E1F31092120129813A814B8193
:1005F0005C818D859E85AF85B889820F931FA41F6E
:10060000B51F89839A83AB83BC832D813E814F8143
:1006100058858D859E85AF85B889820F931FA41F4D
:10062000B51F8D839E83AF83B88729853A854B8517
:100630005C858D859E85AF85B889820F931FA41F29
:10064000B51F89879A87AB87BC879ACFF894FFCF6D
:100650000100000000000002000000004501000051
:02066000000098
:00000001FF
